{
  "abi": [
    {
      "inputs": [
        {
          "internalType": "string",
          "name": "name",
          "type": "string"
        },
        {
          "internalType": "string",
          "name": "symbol",
          "type": "string"
        },
        {
          "internalType": "string",
          "name": "uri",
          "type": "string"
        }
      ],
      "stateMutability": "nonpayable",
      "type": "constructor"
    },
    {
      "anonymous": false,
      "inputs": [
        {
          "indexed": true,
          "internalType": "address",
          "name": "owner",
          "type": "address"
        },
        {
          "indexed": true,
          "internalType": "address",
          "name": "approved",
          "type": "address"
        },
        {
          "indexed": true,
          "internalType": "uint256",
          "name": "tokenId",
          "type": "uint256"
        }
      ],
      "name": "Approval",
      "type": "event"
    },
    {
      "anonymous": false,
      "inputs": [
        {
          "indexed": true,
          "internalType": "address",
          "name": "owner",
          "type": "address"
        },
        {
          "indexed": true,
          "internalType": "address",
          "name": "operator",
          "type": "address"
        },
        {
          "indexed": false,
          "internalType": "bool",
          "name": "approved",
          "type": "bool"
        }
      ],
      "name": "ApprovalForAll",
      "type": "event"
    },
    {
      "anonymous": false,
      "inputs": [
        {
          "indexed": true,
          "internalType": "address",
          "name": "from",
          "type": "address"
        },
        {
          "indexed": true,
          "internalType": "address",
          "name": "to",
          "type": "address"
        },
        {
          "indexed": true,
          "internalType": "uint256",
          "name": "tokenId",
          "type": "uint256"
        }
      ],
      "name": "Transfer",
      "type": "event"
    },
    {
      "inputs": [
        {
          "internalType": "address",
          "name": "to",
          "type": "address"
        },
        {
          "internalType": "uint256",
          "name": "tokenId",
          "type": "uint256"
        }
      ],
      "name": "approve",
      "outputs": [],
      "stateMutability": "nonpayable",
      "type": "function"
    },
    {
      "inputs": [
        {
          "internalType": "address",
          "name": "owner",
          "type": "address"
        }
      ],
      "name": "balanceOf",
      "outputs": [
        {
          "internalType": "uint256",
          "name": "",
          "type": "uint256"
        }
      ],
      "stateMutability": "view",
      "type": "function"
    },
    {
      "inputs": [
        {
          "internalType": "uint256",
          "name": "tokenId",
          "type": "uint256"
        }
      ],
      "name": "getApproved",
      "outputs": [
        {
          "internalType": "address",
          "name": "",
          "type": "address"
        }
      ],
      "stateMutability": "view",
      "type": "function"
    },
    {
      "inputs": [
        {
          "internalType": "address",
          "name": "owner",
          "type": "address"
        },
        {
          "internalType": "address",
          "name": "operator",
          "type": "address"
        }
      ],
      "name": "isApprovedForAll",
      "outputs": [
        {
          "internalType": "bool",
          "name": "",
          "type": "bool"
        }
      ],
      "stateMutability": "view",
      "type": "function"
    },
    {
      "inputs": [
        {
          "internalType": "address",
          "name": "to",
          "type": "address"
        }
      ],
      "name": "mintTo",
      "outputs": [],
      "stateMutability": "nonpayable",
      "type": "function"
    },
    {
      "inputs": [],
      "name": "name",
      "outputs": [
        {
          "internalType": "string",
          "name": "",
          "type": "string"
        }
      ],
      "stateMutability": "view",
      "type": "function"
    },
    {
      "inputs": [
        {
          "internalType": "uint256",
          "name": "tokenId",
          "type": "uint256"
        }
      ],
      "name": "ownerOf",
      "outputs": [
        {
          "internalType": "address",
          "name": "",
          "type": "address"
        }
      ],
      "stateMutability": "view",
      "type": "function"
    },
    {
      "inputs": [
        {
          "internalType": "address",
          "name": "from",
          "type": "address"
        },
        {
          "internalType": "address",
          "name": "to",
          "type": "address"
        },
        {
          "internalType": "uint256",
          "name": "tokenId",
          "type": "uint256"
        }
      ],
      "name": "safeTransferFrom",
      "outputs": [],
      "stateMutability": "nonpayable",
      "type": "function"
    },
    {
      "inputs": [
        {
          "internalType": "address",
          "name": "from",
          "type": "address"
        },
        {
          "internalType": "address",
          "name": "to",
          "type": "address"
        },
        {
          "internalType": "uint256",
          "name": "tokenId",
          "type": "uint256"
        },
        {
          "internalType": "bytes",
          "name": "data",
          "type": "bytes"
        }
      ],
      "name": "safeTransferFrom",
      "outputs": [],
      "stateMutability": "nonpayable",
      "type": "function"
    },
    {
      "inputs": [
        {
          "internalType": "address",
          "name": "operator",
          "type": "address"
        },
        {
          "internalType": "bool",
          "name": "approved",
          "type": "bool"
        }
      ],
      "name": "setApprovalForAll",
      "outputs": [],
      "stateMutability": "nonpayable",
      "type": "function"
    },
    {
      "inputs": [
        {
          "internalType": "bytes4",
          "name": "interfaceId",
          "type": "bytes4"
        }
      ],
      "name": "supportsInterface",
      "outputs": [
        {
          "internalType": "bool",
          "name": "",
          "type": "bool"
        }
      ],
      "stateMutability": "view",
      "type": "function"
    },
    {
      "inputs": [],
      "name": "symbol",
      "outputs": [
        {
          "internalType": "string",
          "name": "",
          "type": "string"
        }
      ],
      "stateMutability": "view",
      "type": "function"
    },
    {
      "inputs": [
        {
          "internalType": "uint256",
          "name": "index",
          "type": "uint256"
        }
      ],
      "name": "tokenByIndex",
      "outputs": [
        {
          "internalType": "uint256",
          "name": "",
          "type": "uint256"
        }
      ],
      "stateMutability": "view",
      "type": "function"
    },
    {
      "inputs": [
        {
          "internalType": "address",
          "name": "owner",
          "type": "address"
        },
        {
          "internalType": "uint256",
          "name": "index",
          "type": "uint256"
        }
      ],
      "name": "tokenOfOwnerByIndex",
      "outputs": [
        {
          "internalType": "uint256",
          "name": "",
          "type": "uint256"
        }
      ],
      "stateMutability": "view",
      "type": "function"
    },
    {
      "inputs": [
        {
          "internalType": "uint256",
          "name": "tokenId",
          "type": "uint256"
        }
      ],
      "name": "tokenURI",
      "outputs": [
        {
          "internalType": "string",
          "name": "",
          "type": "string"
        }
      ],
      "stateMutability": "view",
      "type": "function"
    },
    {
      "inputs": [],
      "name": "totalSupply",
      "outputs": [
        {
          "internalType": "uint256",
          "name": "",
          "type": "uint256"
        }
      ],
      "stateMutability": "view",
      "type": "function"
    },
    {
      "inputs": [
        {
          "internalType": "address",
          "name": "from",
          "type": "address"
        },
        {
          "internalType": "address",
          "name": "to",
          "type": "address"
        },
        {
          "internalType": "uint256",
          "name": "tokenId",
          "type": "uint256"
        }
      ],
      "name": "transferFrom",
      "outputs": [],
      "stateMutability": "nonpayable",
      "type": "function"
    }
  ],
  "bytecode": {
    "object": "0x60a060405260006080908152600a906200001a908262000180565b503480156200002857600080fd5b5060405162001af038038062001af08339810160408190526200004b9162000303565b828260006200005b838262000180565b5060016200006a828262000180565b5050506000815111620000c35760405162461bcd60e51b815260206004820152601560248201527f555249206d757374206265206e6f6e2d656d7074790000000000000000000000604482015260640160405180910390fd5b600a620000d1828262000180565b5050505062000394565b634e487b7160e01b600052604160045260246000fd5b600181811c908216806200010657607f821691505b6020821081036200012757634e487b7160e01b600052602260045260246000fd5b50919050565b601f8211156200017b57600081815260208120601f850160051c81016020861015620001565750805b601f850160051c820191505b81811015620001775782815560010162000162565b5050505b505050565b81516001600160401b038111156200019c576200019c620000db565b620001b481620001ad8454620000f1565b846200012d565b602080601f831160018114620001ec5760008415620001d35750858301515b600019600386901b1c1916600185901b17855562000177565b600085815260208120601f198616915b828110156200021d57888601518255948401946001909101908401620001fc565b50858210156200023c5787850151600019600388901b60f8161c191681555b5050505050600190811b01905550565b600082601f8301126200025e57600080fd5b81516001600160401b03808211156200027b576200027b620000db565b604051601f8301601f19908116603f01168101908282118183101715620002a657620002a6620000db565b81604052838152602092508683858801011115620002c357600080fd5b600091505b83821015620002e75785820183015181830184015290820190620002c8565b83821115620002f95760008385830101525b9695505050505050565b6000806000606084860312156200031957600080fd5b83516001600160401b03808211156200033157600080fd5b6200033f878388016200024c565b945060208601519150808211156200035657600080fd5b62000364878388016200024c565b935060408601519150808211156200037b57600080fd5b506200038a868287016200024c565b9150509250925092565b61174c80620003a46000396000f3fe608060405234801561001057600080fd5b506004361061010b5760003560e01c80634f6ccce7116100a257806395d89b411161007157806395d89b4114610224578063a22cb4651461022c578063b88d4fde1461023f578063c87b56dd14610252578063e985e9c51461026557600080fd5b80634f6ccce7146101d85780636352211e146101eb57806370a08231146101fe578063755edd171461021157600080fd5b806318160ddd116100de57806318160ddd1461018d57806323b872dd1461019f5780632f745c59146101b257806342842e0e146101c557600080fd5b806301ffc9a71461011057806306fdde0314610138578063081812fc1461014d578063095ea7b314610178575b600080fd5b61012361011e36600461119a565b6102a1565b60405190151581526020015b60405180910390f35b6101406102cc565b60405161012f9190611216565b61016061015b366004611229565b61035e565b6040516001600160a01b03909116815260200161012f565b61018b61018636600461125e565b610385565b005b6008545b60405190815260200161012f565b61018b6101ad366004611288565b61049f565b6101916101c036600461125e565b6104d0565b61018b6101d3366004611288565b610566565b6101916101e6366004611229565b610581565b6101606101f9366004611229565b610614565b61019161020c3660046112c4565b610674565b61018b61021f3660046112c4565b6106fa565b61014061070f565b61018b61023a3660046112df565b61071e565b61018b61024d366004611331565b61072d565b610140610260366004611229565b610765565b61012361027336600461140d565b6001600160a01b03918216600090815260056020908152604080832093909416825291909152205460ff1690565b60006001600160e01b0319821663780e9d6360e01b14806102c657506102c682610799565b92915050565b6060600080546102db90611440565b80601f016020809104026020016040519081016040528092919081815260200182805461030790611440565b80156103545780601f1061032957610100808354040283529160200191610354565b820191906000526020600020905b81548152906001019060200180831161033757829003601f168201915b5050505050905090565b6000610369826107e9565b506000908152600460205260409020546001600160a01b031690565b600061039082610614565b9050806001600160a01b0316836001600160a01b0316036104025760405162461bcd60e51b815260206004820152602160248201527f4552433732313a20617070726f76616c20746f2063757272656e74206f776e656044820152603960f91b60648201526084015b60405180910390fd5b336001600160a01b038216148061041e575061041e8133610273565b6104905760405162461bcd60e51b815260206004820152603e60248201527f4552433732313a20617070726f76652063616c6c6572206973206e6f7420746f60448201527f6b656e206f776e6572206e6f7220617070726f76656420666f7220616c6c000060648201526084016103f9565b61049a8383610848565b505050565b6104a933826108b6565b6104c55760405162461bcd60e51b81526004016103f99061147a565b61049a838383610935565b60006104db83610674565b821061053d5760405162461bcd60e51b815260206004820152602b60248201527f455243373231456e756d657261626c653a206f776e657220696e646578206f7560448201526a74206f6620626f756e647360a81b60648201526084016103f9565b506001600160a01b03919091166000908152600660209081526040808320938352929052205490565b61049a8383836040518060200160405280600081525061072d565b600061058c60085490565b82106105ef5760405162461bcd60e51b815260206004820152602c60248201527f455243373231456e756d657261626c653a20676c6f62616c20696e646578206f60448201526b7574206f6620626f756e647360a01b60648201526084016103f9565b60088281548110610602576106026114c8565b90600052602060002001549050919050565b6000818152600260205260408120546001600160a01b0316806102c65760405162461bcd60e51b8152602060048201526018602482015277115490cdcc8c4e881a5b9d985b1a59081d1bdad95b88125160421b60448201526064016103f9565b60006001600160a01b0382166106de5760405162461bcd60e51b815260206004820152602960248201527f4552433732313a2061646472657373207a65726f206973206e6f7420612076616044820152683634b21037bbb732b960b91b60648201526084016103f9565b506001600160a01b031660009081526003602052604090205490565b61070c8161070760085490565b610aeb565b50565b6060600180546102db90611440565b610729338383610c39565b5050565b61073733836108b6565b6107535760405162461bcd60e51b81526004016103f99061147a565b61075f84848484610d07565b50505050565b6060600a61077283610d3a565b6040516020016107839291906114fa565b6040516020818303038152906040529050919050565b60006001600160e01b031982166380ac58cd60e01b14806107ca57506001600160e01b03198216635b5e139f60e01b145b806102c657506301ffc9a760e01b6001600160e01b03198316146102c6565b6000818152600260205260409020546001600160a01b031661070c5760405162461bcd60e51b8152602060048201526018602482015277115490cdcc8c4e881a5b9d985b1a59081d1bdad95b88125160421b60448201526064016103f9565b600081815260046020526040902080546001600160a01b0319166001600160a01b038416908117909155819061087d82610614565b6001600160a01b03167f8c5be1e5ebec7d5bd14f71427d1e84f3dd0314c0f7b2291e5b200ac8c7c3b92560405160405180910390a45050565b6000806108c283610614565b9050806001600160a01b0316846001600160a01b0316148061090957506001600160a01b0380821660009081526005602090815260408083209388168352929052205460ff165b8061092d5750836001600160a01b03166109228461035e565b6001600160a01b0316145b949350505050565b826001600160a01b031661094882610614565b6001600160a01b0316146109ac5760405162461bcd60e51b815260206004820152602560248201527f4552433732313a207472616e736665722066726f6d20696e636f72726563742060448201526437bbb732b960d91b60648201526084016103f9565b6001600160a01b038216610a0e5760405162461bcd60e51b8152602060048201526024808201527f4552433732313a207472616e7366657220746f20746865207a65726f206164646044820152637265737360e01b60648201526084016103f9565b610a19838383610e3b565b600081815260046020908152604080832080546001600160a01b03191690556001600160a01b038616835260039091528120805460019290610a5c9084906115ce565b90915550506001600160a01b0382166000908152600360205260408120805460019290610a8a9084906115e5565b909155505060008181526002602052604080822080546001600160a01b0319166001600160a01b0386811691821790925591518493918716917fddf252ad1be2c89b69c2b068fc378daa952ba7f163c4a11628f55a4df523b3ef91a4505050565b6001600160a01b038216610b415760405162461bcd60e51b815260206004820181905260248201527f4552433732313a206d696e7420746f20746865207a65726f206164647265737360448201526064016103f9565b6000818152600260205260409020546001600160a01b031615610ba65760405162461bcd60e51b815260206004820152601c60248201527f4552433732313a20746f6b656e20616c7265616479206d696e7465640000000060448201526064016103f9565b610bb260008383610e3b565b6001600160a01b0382166000908152600360205260408120805460019290610bdb9084906115e5565b909155505060008181526002602052604080822080546001600160a01b0319166001600160a01b03861690811790915590518392907fddf252ad1be2c89b69c2b068fc378daa952ba7f163c4a11628f55a4df523b3ef908290a45050565b816001600160a01b0316836001600160a01b031603610c9a5760405162461bcd60e51b815260206004820152601960248201527f4552433732313a20617070726f766520746f2063616c6c65720000000000000060448201526064016103f9565b6001600160a01b03838116600081815260056020908152604080832094871680845294825291829020805460ff191686151590811790915591519182527f17307eab39ab6107e8899845ad3d59bd9653f200f220920489ca2b5937696c31910160405180910390a3505050565b610d12848484610935565b610d1e84848484610ef3565b61075f5760405162461bcd60e51b81526004016103f9906115fd565b606081600003610d615750506040805180820190915260018152600360fc1b602082015290565b8160005b8115610d8b5780610d758161164f565b9150610d849050600a8361167e565b9150610d65565b60008167ffffffffffffffff811115610da657610da661131b565b6040519080825280601f01601f191660200182016040528015610dd0576020820181803683370190505b5090505b841561092d57610de56001836115ce565b9150610df2600a86611692565b610dfd9060306115e5565b60f81b818381518110610e1257610e126114c8565b60200101906001600160f81b031916908160001a905350610e34600a8661167e565b9450610dd4565b6001600160a01b038316610e9657610e9181600880546000838152600960205260408120829055600182018355919091527ff3f7a9fe364faab93b216da50a3214154f22a0a2b415b23a84c8169e8b636ee30155565b610eb9565b816001600160a01b0316836001600160a01b031614610eb957610eb98382610ff4565b6001600160a01b038216610ed05761049a81611091565b826001600160a01b0316826001600160a01b03161461049a5761049a8282611140565b60006001600160a01b0384163b15610fe957604051630a85bd0160e11b81526001600160a01b0385169063150b7a0290610f379033908990889088906004016116a6565b6020604051808303816000875af1925050508015610f72575060408051601f3d908101601f19168201909252610f6f918101906116e3565b60015b610fcf573d808015610fa0576040519150601f19603f3d011682016040523d82523d6000602084013e610fa5565b606091505b508051600003610fc75760405162461bcd60e51b81526004016103f9906115fd565b805181602001fd5b6001600160e01b031916630a85bd0160e11b14905061092d565b506001949350505050565b6000600161100184610674565b61100b91906115ce565b60008381526007602052604090205490915080821461105e576001600160a01b03841660009081526006602090815260408083208584528252808320548484528184208190558352600790915290208190555b5060009182526007602090815260408084208490556001600160a01b039094168352600681528383209183525290812055565b6008546000906110a3906001906115ce565b600083815260096020526040812054600880549394509092849081106110cb576110cb6114c8565b9060005260206000200154905080600883815481106110ec576110ec6114c8565b600091825260208083209091019290925582815260099091526040808220849055858252812055600880548061112457611124611700565b6001900381819060005260206000200160009055905550505050565b600061114b83610674565b6001600160a01b039093166000908152600660209081526040808320868452825280832085905593825260079052919091209190915550565b6001600160e01b03198116811461070c57600080fd5b6000602082840312156111ac57600080fd5b81356111b781611184565b9392505050565b60005b838110156111d95781810151838201526020016111c1565b8381111561075f5750506000910152565b600081518084526112028160208601602086016111be565b601f01601f19169290920160200192915050565b6020815260006111b760208301846111ea565b60006020828403121561123b57600080fd5b5035919050565b80356001600160a01b038116811461125957600080fd5b919050565b6000806040838503121561127157600080fd5b61127a83611242565b946020939093013593505050565b60008060006060848603121561129d57600080fd5b6112a684611242565b92506112b460208501611242565b9150604084013590509250925092565b6000602082840312156112d657600080fd5b6111b782611242565b600080604083850312156112f257600080fd5b6112fb83611242565b91506020830135801515811461131057600080fd5b809150509250929050565b634e487b7160e01b600052604160045260246000fd5b6000806000806080858703121561134757600080fd5b61135085611242565b935061135e60208601611242565b925060408501359150606085013567ffffffffffffffff8082111561138257600080fd5b818701915087601f83011261139657600080fd5b8135818111156113a8576113a861131b565b604051601f8201601f19908116603f011681019083821181831017156113d0576113d061131b565b816040528281528a60208487010111156113e957600080fd5b82602086016020830137600060208483010152809550505050505092959194509250565b6000806040838503121561142057600080fd5b61142983611242565b915061143760208401611242565b90509250929050565b600181811c9082168061145457607f821691505b60208210810361147457634e487b7160e01b600052602260045260246000fd5b50919050565b6020808252602e908201527f4552433732313a2063616c6c6572206973206e6f7420746f6b656e206f776e6560408201526d1c881b9bdc88185c1c1c9bdd995960921b606082015260800190565b634e487b7160e01b600052603260045260246000fd5b600081516114f08185602086016111be565b9290920192915050565b600080845481600182811c91508083168061151657607f831692505b6020808410820361153557634e487b7160e01b86526022600452602486fd5b818015611549576001811461155e5761158b565b60ff198616895284151585028901965061158b565b60008b81526020902060005b868110156115835781548b82015290850190830161156a565b505084890196505b5050505050506115af61159e82866114de565b64173539b7b760d91b815260050190565b95945050505050565b634e487b7160e01b600052601160045260246000fd5b6000828210156115e0576115e06115b8565b500390565b600082198211156115f8576115f86115b8565b500190565b60208082526032908201527f4552433732313a207472616e7366657220746f206e6f6e20455243373231526560408201527131b2b4bb32b91034b6b83632b6b2b73a32b960711b606082015260800190565b600060018201611661576116616115b8565b5060010190565b634e487b7160e01b600052601260045260246000fd5b60008261168d5761168d611668565b500490565b6000826116a1576116a1611668565b500690565b6001600160a01b03858116825284166020820152604081018390526080606082018190526000906116d9908301846111ea565b9695505050505050565b6000602082840312156116f557600080fd5b81516111b781611184565b634e487b7160e01b600052603160045260246000fdfea2646970667358221220f58a188375a06b10b998a907d3bbefbb8922f9fb91dc37e6369d0785c54e8a7b64736f6c634300080f0033",
    "linkReferences": {}
  },
  "methodIdentifiers": {
    "approve(address,uint256)": "095ea7b3",
    "balanceOf(address)": "70a08231",
    "getApproved(uint256)": "081812fc",
    "isApprovedForAll(address,address)": "e985e9c5",
    "mintTo(address)": "755edd17",
    "name()": "06fdde03",
    "ownerOf(uint256)": "6352211e",
    "safeTransferFrom(address,address,uint256)": "42842e0e",
    "safeTransferFrom(address,address,uint256,bytes)": "b88d4fde",
    "setApprovalForAll(address,bool)": "a22cb465",
    "supportsInterface(bytes4)": "01ffc9a7",
    "symbol()": "95d89b41",
    "tokenByIndex(uint256)": "4f6ccce7",
    "tokenOfOwnerByIndex(address,uint256)": "2f745c59",
    "tokenURI(uint256)": "c87b56dd",
    "totalSupply()": "18160ddd",
    "transferFrom(address,address,uint256)": "23b872dd"
  },
  "id": 17
}